:2000000043C30FC02DC01895A6C018951895189518953CC001C33AC18DC1A4C1A9C11895D2
:2000200018950FB6B39902C0979AAB9AB09BAC9AB29B01C013C030916800327179F43327C5
:200040003093690030936C00969A35E03093FE003091680030613D7F309368000FBE189524
:200060000FB63BB73F773BBFB39B08C0AB983BB730683BBF30E83ABF0FBE189592603091FE
:2000800064003160309364000FBE18950FB630917A003A9519F030937A0059C034E13093C4
:2000A0007A0060FF03C09A9409F468603091FF00337029F03091F40038603093F400309170
:2000C0008C0032FD05C031FD36C030FD1DC03FC03091750032603093750030916D0030FF16
:2000E00002C0AE9A05C09E9B02C0AE9801C0AE9A30918A003A9519F030938A0028C035E07A
:2001000030938A00906523C030916D0030FF02C0AE9A05C09E9B02C0AE9801C0AE9A309183
:2001200089003A9519F03093890011C03AE03093890090640CC030916D0030FF02C0AE9AB4
:2001400006C09E9B02C0AE9802C0AE9A00C03CE432BF0FBE18950FB630918E0031FF0BC034
:200160003091F2003A9519F03093F20004C03AEF3093F2009062309180003A9519F03093CF
:20018000800004C03CE73093800098603091640031FF0CC0309179003A9519F0309379004E
:2001A00005C03091640034603093640030916D0030FF0FC0309171003A9519F03093710030
:2001C00008C034E63093710030916D00326030936D003091650037FF0AC04091FD004A9546
:2001E00019F04093FD0003C03F77309365003091FE003A9519F03093FE002FC038E0309363
:20020000FE003091680031FF1CC000C0B29901C024C035FF06C03F7D3D7F30936800969830
:200220001CC036FD1AC033FD18C03D7F38603093680040916B00406840936B00746096982A
:200240000CC0B29904C034FF08C0946006C034FF04C03F7E3093680096983091F50031FD1D
:2002600005C032FD03C033FD01C00CC03091FC003A9519F03093FC0005C03091F6003068A2
:200280003093F6003DE834BD0FBE18950FB63BB134FD47C03CB14091650046FD49C047FF77
:2002A00033C05091EF005E3D31F0509166005A955093660006C0432F4F7043954093660038
:2002C00000C0E091EF00FF273193E093EF00503009F02EC0EEEDFF273191432F3F7021F056
:2002E0005191450F3A95E1F75191451739F4409165004F774064409365001AC040916500CE
:200300004F774093650014C0323009F011C055E05093FD004068409365004EED4093EF00ED
:2003200007C03CB1309165003F773093650000C00FBE18950FB63091D1004091D200341786
:2003400030F07E7F3AB13F793AB90FBE1895B399F8CFE091D100FF2731913CB9E093D100FA
:200360000FBE18950FB63AB13F7B3AB90FBE18950FB644B155B153708F7786FD3CC185FDA1
:200380000DC184FDF1C083FD92C082FD21C081FD04C080FD0CC00FBE1895AB9AA99A8D7F92
:2003A000916050936200409363000FBE1895AA9A50936000409361008E7FAB9A37E0309370
:2003C0007900309164003260309364000FBE18958B7F469546954F7350FD406451FD4068E3
:2003E000483E10F0332725C0403D10F039E021C0483B10F038E01DC0403A10F037E019C0DF
:20040000483810F036E015C0403710F035E011C0483510F034E00DC0403410F033E009C066
:20042000463210F032E005C04C3010F03AE001C031E0303059F040916900431769F041E04E
:2004400040936C00309369000FBE189530936C00309369000FBE189540916C0043954093FA
:200460006C00433010F40FBE1895B3990CC040916800426048604F7E4093680030936B004E
:2004800074600FBE1895363060F03A3051F04091680042604062477F4F7E409368000FBE95
:2004A000189540916800406440936800E0CF877F30917F00303069F4339530937F004093E8
:2004C0007E0050937D0040938200509381000FBE1895142E252E30918200431B20F4309100
:2004E0008100339502C030918100531B18F4509540954395503029F0332730937F000FBEA1
:200500001895493008F0F8CF412D522D30917E00430F30917D00531F30917F003395383058
:2005200061F030937F0040937E0050937D0010928200209281000FBE189546954695469515
:200540004F7150FD406251FD406452FD40685695569556955F71332730937F0040937C0087
:2005600050937B000FBE18958F7E409383005093840039E9431B18F431E0339501C031E0A2
:20058000531B38F430918D00339530938D000FBE1895332730938D000FBE18958F7D4695D6
:2005A00046954F7350FD406451FD406830918E0032FD07C04093F100346030938E000FBEFC
:2005C00018955091F100541B10F450955395593008F00AC05091F100450F18F4469540685C
:2005E00001C0469540938F0030918E003B7F30938E000FBE18958F7B40938700509388005A
:200600003091BB0030FD02C00FBE18953E7F3093BB0064600FBE18950FB63091F30030FFD4
:2006200012C04091A1005091A200451721F434603093F30027C0E091A100FF273191E093E4
:20064000A1003FB91FC0E091A300FF275FB15193E093A300E093A4004091F7004A9579F0B7
:200660004093F7004091F50043FD05C042FD03C044274FB907C03C603093F30003C0346000
:200680003093F3000FBE1895F89401E00EBF0FE50DBF04B700FF01C006C001FF08C012E035
:2006A0001093BF0008C011E01093BF0004C013E01093BF0000C0002704BF11E01ABB10E044
:2006C0001BBB12EB17BB1DE118BB1FEF14BB1EE615BB12EF11BB15E212BB18E111BD1C7F00
:2006E00011BD01BD0BBF09BF05BF0BBD0ABD09BD08BD0EB916ED1DB90CBB18E91AB911E0D2
:2007000019B910E818B91DE916B913E015BD1DE814BD15E013BF1CE412BF14E110937A0024
:200720001CE71093800070E080E090E060E000936C000093680000936500009367000093B4
:200740006D00009364000093750000938C0000938E0000937B0000937C0000937D0000932D
:200760007E00009381000093820000937F000093F3000093F4000093F6000093F50000930F
:20078000B6000093B7000093B80088240093BC000093BD000093BE000093BB0001E00093B0
:2007A000FF0000EC0ABF00EC0BBF0DEF08BF01E409BF789470FD90C1072F0E7F21F4062F88
:2007C000067809F489C1B39B09C060FD09C0677F03E0902EAD986160AD9A7EC160FF13C0D2
:2007E00063FF7AC172FF0CC00091680006FD04C0077F0093680004C0077B0062009368003B
:200800006627772769C174FF3BC00091FF0007FF63C10F770093FF0071607F7EDD27C0ECC5
:20082000C093D10002E0099309E0102F099301E3100F09930EE2100F099300E3100F09936A
:2008400004E3100F09930091BC00100F09930EE2100F09930091BD00100F09930091BE00EB
:20086000100F09930091BF00100F0993199300270093BF00C093D200F894559A78942CC1F4
:2008800071FF0DC071607D7FDD27C0ECC093D100B6D5C093D200F894559A78941DC172FFF4
:2008A0000DC071607B7FDD27C0ECC093D100C6D5C093D200F894559A78940EC173FF1BC069
:2008C0007160777FDD27C0ECC093D100A5EDBB270D9112E0199310E4102B1993212F1D91F4
:2008E0001993210F0A95D9F72993C093D200F894559A7894F1C067FF17C071606F77DD279C
:20090000C0ECC093D100B1E0A3E10D91202F63D50D9161D50D915FD50DE00993C093D20079
:20092000F894559A7894D8C076FF56C071607F7BDD27C0ECC093D10002E0099305E9209151
:20094000FF0021FD09E920FD09E9102F099300E0B09B01E0100F099305E0100F0993F894AB
:2009600000917C00100F099300917B00100F0993789400E020918C0020FD08E021FD08E0B4
:2009800022FD08E02091B80024FD08E02091750026FD0064100F09932091FF0021FD03C0E5
:2009A00020FD01C012C00091B600100F09930091B700100F09930091B8000F7EB099077FDD
:2009C000100F0993082D100F09931993C093D200F894559A789480C077FF2AC07160DD279F
:2009E000C0ECC093D10002E009931091670010FD06C011FD07C012FD08C013FD09C000ED5C
:200A00001E7F09C000E81D7F06C000E51B7F03C000EC177F00C009930993C093D2001093A2
:200A20006700103009F47F77F894559A789454C075FF16C071607F7DDD27C0ECC093D10096
:200A400002E0099301ED0993102F00918F00100F09931993C093D200F894559A78943CC020
:200A600061FF1CC071606D7FDD27C0ECC093D100B1E0A0E02091F80002E0099300EB022B59
:200A80000993102F0D910993100F2A95D9F71993C093D200F894559A78941EC062FF1CC020
:200AA00071606B7FDD27C0ECC093D10002E0099302E60993102FF894009187000993100F07
:200AC0000091880078940993100F1993C093D200F894559A789400C087FD4DC0379902C0FB
:200AE0000DE906B990FF0CC081689E7FAA98AB9AA898A99A6CD407E007B90DED06B93BC03B
:200B000091FF0CC082689D7FAA9AAB98A89AA9985ED406E007B90DED06B92DC092FF07C093
:200B200084689B7F05E007B90DED06B924C093FF07C08868977F04E007B90DED06B91BC0D6
:200B400094FF07C080699F7E03E007B90DED06B912C095FF07C0806A9F7D02E007B90DED0A
:200B600006B909C096FF07C0806C9F7B01E007B90DED06B900C000916D0000FF40C001FF74
:200B80003EC00D7F00936D00009174000A9519F0009374000EC0B49B06C0C49800916F00D8
:200BA0000093740006C0C49A009170000093740000C000916D0002FD22C0009172000A95C1
:200BC00019F0009372001BC002E300937200009173000A9519F00093730011C00CE0009340
:200BE000730000916E000A9519F000936E0007C000916D000C7F00936D00C49A00C00091DB
:200C0000750000FFB2C0B099A8C000918D00023030F00091750008600093750062C00091A4
:200C2000750001FD01C025C10D7F009375000091BA000A9519F00093BA001AC00AE000936F
:200C4000BA00F894009187001091880078942BE7021B18F420E0239501C020E0121B10F020
:200C6000FBD406C00091750000620093750039C0009176000A9519F000937600FAC00CE315
:200C800000937600009177000A9519F000937700F0C00CE300937700009178000A9529F027
:200CA00000937800073039F0E4C00091750000610093750016C0F89400917C0010917B002B
:200CC00078942AEA021B18F422E0239501C022E0121B08F0CEC00091750004600093750029
:200CE00000C0009175000C7F009375000091750003FD07C004FD09C002FD0EC005FD09C06C
:200D0000B8C0077F0093750008C00F7E0093750004C00F7D0093750017C0F89400917C00A8
:200D200010917B00789429E9021B18F423E0239501C023E0121B08F407C000917500006873
:200D400000640093750000C0AE9AC19800918C000B7F086000938C008CC0002700938C0006
:200D600000937500C198AE9A84C0B0997BC00091750002FD7EC000918C0003FD12C001FDD2
:200D800052C000FD3CC00027009387000093880003E00093890000918C00016000938C0050
:200DA0002EC00091750007FF04C000916D0000FFAE98F89400917C0010917B0078942BE85E
:200DC000021B18F423E0239501C023E0121B08F050C0009175000F770F7B00937500AE9AD0
:200DE0000027009387000093880003E00093890000918C000160077F00938C0000C0F89429
:200E0000009187001091880078942FE8021B20F420E02395121B68F100918C000E7F0260F3
:200E200000938C0000C018D40CE3009376000CE30093770008E000937800002700938D00BC
:200E400005E000938A000AE00093BA00D89AC19A01E00093750000918C000D7F0460009303
:200E60008C0007C000270093750000938C00AE9A00C00091640001FF1AC002FF18C0B399D5
:200E800009C083990BC0097F00936400AB98926072600DC0087F0093640004C0087F0093F3
:200EA000640072600BB700680BBF00E80ABF0091F30007FDA5C01091F4001F7009F4A0C0E9
:200EC0006E9B6E9A2091F40021FF1DC001680093F3002D7F2093F4001091F6001F7711607F
:200EE0001093F60011E11093FC001091F50012601093F500959800270093A1000093A2006B
:200F000006E00FB97DC020FF2DC001680093F3002E7F2093F4001091F50011601093F500F8
:200F20009598DD27C0E9C093A1001091FB00103089F01091F9001993C093A2000091FB00C7
:200F40000093F70003E01091FA00113009F408600FB956C0C093A20001E00093F70005E0C0
:200F60000FB94EC022FF25C001680093F3002B7F2093F40012E01093FC001091F5001460BA
:200F80001093F5009598000000000000959A00E30A95F1F7DD27C0E9C093A10000E10993D5
:200FA0000993C093A20006E00093F70001EA0FB927C023FF25C001680093F300277F209347
:200FC000F40013E01093FC001091F50018601093F5009598000000000000959A00E30A9507
:200FE000F1F7DD27C0E9C093A10000E209930993C093A20007E00093F70001EA0FB900C075
:201000000091F30002FF42C11091F50010FF2FC000FD02C001FD0CC00A7F02600093F300BA
:2010200005EA0093A30000270093F8000FB92EC1959A09770093F3001E7F1093F500B1E027
:20104000A0E0DD27C5EA2091A400112709910D9313952C17D9F71093F80062600091FF00EE
:20106000037009F013C101600093FF000FC111FF42C0959A2091F60020FD02C021FD29C09F
:201080000B7F0093F3002E7F22602093F600DD27C0E9C093A100B1E0A3E12D91203089F02B
:2010A0001D9119930D911D9119932A95E1F7C093A2009598102F02E0113009F408600FB996
:2010C000E5C01D911993C093A200959801E00FB9DDC027FFDBC01D7F1093F5002D7720935D
:2010E000F6000A770093F300009167000860009367007068CBC012FF55C000FD02C001FD53
:2011000010C02091F60027FFC1C00A7F02600093F30005EA0093A30000270093F8000FB9A1
:20112000B5C003FF08C0037F0093F30008E20A95F1F70FB9ABC009770093F3001B7F109381
:20114000F5002091F6002F772093F6000091FF0000680093FF00DD27C5EA0991013AD1F4CD
:2011600009910331B9F4102F0991100F0991100F0991100F0991101769F4C5EAC395C3950D
:2011800009910093BC0009910093BD0009910093BE007CC000270093BC000093BD000093FC
:2011A000BE0074C013FF72C000FD02C001FD10C02091F60027FF6AC00A7F02600093F30004
:2011C00005EA0093A30000270093F8000FB95EC003FF08C0037F0093F30008E20A95F1F70F
:2011E0000FB954C009770093F300177F1093F5002091F6002F772093F600DD27C5EA09919C
:20120000013A29F50991043211F5102F0991100F0991100F0991100F0991100F09911017BB
:20122000B1F4C5EAC395C39509910093B60009910093B70009910093B80089900091FF0055
:2012400001FD24C00E7F02600093FF001FC00091FF0000FD08C001600D7F0093FF0005E093
:201260000093B90013C01091B9001A9519F01093B9000CC00C7F0093FF0000278824009392
:20128000B6000093B7000093B80000C00091650006FF30C0CEEDDD270991C093EF00007F3E
:2012A000003011F43FD126C0003411F40BD122C0003511F419D11EC0003811F446D11AC0DC
:2012C000003911F486D116C0003D11F489D112C0003B11F4D4D10EC0003C11F4F7D10AC0AF
:2012E000003611F422D206C0009165000F7B0093650000C0B39B10C000918E0000FF06C0BF
:20130000AF98002700938E000EBD06C001FF04C0002700938E0000C0B3999798F894B09B8F
:201320002EC000916800027151F5703041F5803031F5903021F500916400003001F5062F3B
:201340000678E9F4009165000030C9F400916D000170A9F40091F4000F7089F40091F3003E
:20136000007869F400918C000F7049F4B39909C037986E9800E405BF789488951BCA789413
:2013800019CA00918E000370D1F737986E98AB98549853989098919888988998C598C798D3
:2013A0009798AC9800E605BF78948895899A549A539AAB9A6E9A002788240093B6000093ED
:2013C000B7000093B80001E00093FF00F3C909EA0A95F1F7089502951FE010231A3010F4AE
:2013E00020E301C027E3120F199302950F700A3010F420E301C027E3020F0993089502E004
:2014000009931091640010FF15C004E3102F099300916000100F099300916100100F09932C
:2014200000916200100F099300916300100F09931993089500E309930993089502E00993D0
:2014400001E2102F099300916800077B20916B00120F29931993009368000895E199FECFCF
:20146000DD27C5ED1091D400110F19931091D40000270FBB0091D3000EBBE09A2DB32993CC
:2014800003950EBBE09A2DB329931A9511F00395F3CF0895E199FECF1091D400DD27C5EDBC
:2014A00000270FBB0091D3000EBB29912DBBF894E29AE19A7894E199FECF1A9511F003954E
:2014C000F3CF0895C091EF00DD270991000F0093D30009910093D400C1DF786000916500EB
:2014E0000F7B009365000895A5EDBB27CEEDDD2709910F700A950093D4001991110F10930E
:20150000D30019911D930A95E1F7C4DF009167000460009367007068009165000F7B009343
:20152000650008950091F40004600093F4000091FF000F770093FF007061009165000F7B40
:20154000009365006E7F677F0895C091EF00DD27099100FD10C0002700936D00C49A009162
:2015600067000260009367007068009165000F7B0093650008950991003029F410916D00C6
:20158000146010936D0000936E00099100936F000093740009910093700004E60093710098
:2015A00002E3009372000CE00093730000916D00016000936D00AE9AC498009167000260F2
:2015C000009367007068009165000F7B0093650008957064009165000F7B0093650008953B
:2015E000C091EF00DD270991033011F470622EC010918E00013059F411FD0AC00AEF009304
:20160000F200002700938F001B7F126001C01D7F0991003039F41E7F10938E00AF980027F3
:201620000EBD0EC0299128BD10938E0010FD08C001E20FBD01E00EBDAF9A116010938E0026
:20164000009167000160009367007068009165000F7B009365000895F89400917C00109110
:201660007B0078942EEE021B18F422E0239501C022E0121B10F4D89A0895D8980895009143
:20168000F40000FD22C00091F50000FD1EC0C091EF00DD2709910F3F31F41991CA951F3F5E
:2016A00011F4002706C00093F90009910093FA0009910093FB000091F40001600093F400F0
:2016C000009165000F7B0093650008950091F40001FD2AC00091F50001FD26C0A3E1B1E009
:2016E000CEEDDD2709910F7002500D9319911F3F51F42991CA952F3F31F4AA9500270D9321
:201700000395C39503C01D9319911D9319911D930A95E1F70091F40002600093F40000913C
:2017200065000F7B0093650008950091750000FF02C0646006C00091BB0001600093BB00D9
:0E1740009064009165000F7B00936500089592
:00000001FF
